{
  "_format": "hh-sol-artifact-1",
  "contractName": "PaymentProcessor",
  "sourceName": "contracts/PaymentProcessor.sol",
  "abi": [
    {
      "inputs": [],
      "name": "ReentrancyGuardReentrantCall",
      "type": "error"
    },
    {
      "anonymous": false,
      "inputs": [
        {
          "indexed": true,
          "internalType": "address",
          "name": "from",
          "type": "address"
        },
        {
          "indexed": false,
          "internalType": "uint256",
          "name": "count",
          "type": "uint256"
        },
        {
          "indexed": false,
          "internalType": "uint256",
          "name": "totalAmount",
          "type": "uint256"
        }
      ],
      "name": "BatchNativePaid",
      "type": "event"
    },
    {
      "anonymous": false,
      "inputs": [
        {
          "indexed": true,
          "internalType": "address",
          "name": "from",
          "type": "address"
        },
        {
          "indexed": true,
          "internalType": "address",
          "name": "to",
          "type": "address"
        },
        {
          "indexed": false,
          "internalType": "uint256",
          "name": "amount",
          "type": "uint256"
        }
      ],
      "name": "NativePaid",
      "type": "event"
    },
    {
      "anonymous": false,
      "inputs": [
        {
          "indexed": true,
          "internalType": "address",
          "name": "token",
          "type": "address"
        },
        {
          "indexed": true,
          "internalType": "address",
          "name": "from",
          "type": "address"
        },
        {
          "indexed": true,
          "internalType": "address",
          "name": "to",
          "type": "address"
        },
        {
          "indexed": false,
          "internalType": "uint256",
          "name": "amount",
          "type": "uint256"
        }
      ],
      "name": "TokenPaid",
      "type": "event"
    },
    {
      "inputs": [
        {
          "internalType": "address[]",
          "name": "recipients",
          "type": "address[]"
        },
        {
          "internalType": "uint256[]",
          "name": "amounts",
          "type": "uint256[]"
        }
      ],
      "name": "batchPayNative",
      "outputs": [],
      "stateMutability": "payable",
      "type": "function"
    },
    {
      "inputs": [
        {
          "internalType": "address",
          "name": "to",
          "type": "address"
        }
      ],
      "name": "payNative",
      "outputs": [],
      "stateMutability": "payable",
      "type": "function"
    },
    {
      "inputs": [
        {
          "internalType": "address",
          "name": "token",
          "type": "address"
        },
        {
          "internalType": "address",
          "name": "to",
          "type": "address"
        },
        {
          "internalType": "uint256",
          "name": "amount",
          "type": "uint256"
        }
      ],
      "name": "payToken",
      "outputs": [],
      "stateMutability": "nonpayable",
      "type": "function"
    },
    {
      "stateMutability": "payable",
      "type": "receive"
    }
  ],
  "bytecode": "0x608060405234801561001057600080fd5b506001600081905550610df6806100286000396000f3fe6080604052600436106100385760003560e01c806308d69b8d1461004457806357ee62fc14610060578063fe0600941461007c5761003f565b3661003f57005b600080fd5b61005e60048036038101906100599190610708565b6100a5565b005b61007a600480360381019061007591906107e7565b6102f2565b005b34801561008857600080fd5b506100a3600480360381019061009e919061084a565b61045a565b005b6100ad6105f3565b8181905084849050146100f5576040517f08c379a00000000000000000000000000000000000000000000000000000000081526004016100ec906108fa565b60405180910390fd5b6000805b8383905081101561013e578383828181106101175761011661091a565b5b90506020020135826101299190610978565b91508080610136906109ac565b9150506100f9565b50803414610181576040517f08c379a000000000000000000000000000000000000000000000000000000000815260040161017890610a40565b60405180910390fd5b60005b8585905081101561028f5760008686838181106101a4576101a361091a565b5b90506020020160208101906101b991906107e7565b73ffffffffffffffffffffffffffffffffffffffff168585848181106101e2576101e161091a565b5b905060200201356040516101f590610a91565b60006040518083038185875af1925050503d8060008114610232576040519150601f19603f3d011682016040523d82523d6000602084013e610237565b606091505b505090508061027b576040517f08c379a000000000000000000000000000000000000000000000000000000000815260040161027290610af2565b60405180910390fd5b508080610287906109ac565b915050610184565b503373ffffffffffffffffffffffffffffffffffffffff167f2b20c2e0c4749695b34d571bb871ce4200b11aaa5091a503de95c795b72bdc9686869050836040516102db929190610b21565b60405180910390a2506102ec610639565b50505050565b6102fa6105f3565b6000341161033d576040517f08c379a000000000000000000000000000000000000000000000000000000000815260040161033490610b96565b60405180910390fd5b60008173ffffffffffffffffffffffffffffffffffffffff163460405161036390610a91565b60006040518083038185875af1925050503d80600081146103a0576040519150601f19603f3d011682016040523d82523d6000602084013e6103a5565b606091505b50509050806103e9576040517f08c379a00000000000000000000000000000000000000000000000000000000081526004016103e090610c02565b60405180910390fd5b8173ffffffffffffffffffffffffffffffffffffffff163373ffffffffffffffffffffffffffffffffffffffff167f6a13f84f6da02a30a03de118aa45b74e39b7e13fd70ff77d38ecdd6bf45c122f346040516104469190610c22565b60405180910390a350610457610639565b50565b6104626105f3565b600081116104a5576040517f08c379a000000000000000000000000000000000000000000000000000000000815260040161049c90610c89565b60405180910390fd5b60008373ffffffffffffffffffffffffffffffffffffffff166323b872dd3385856040518463ffffffff1660e01b81526004016104e493929190610cb8565b6020604051808303816000875af1158015610503573d6000803e3d6000fd5b505050506040513d601f19601f820116820180604052508101906105279190610d27565b905080610569576040517f08c379a000000000000000000000000000000000000000000000000000000000815260040161056090610da0565b60405180910390fd5b8273ffffffffffffffffffffffffffffffffffffffff163373ffffffffffffffffffffffffffffffffffffffff168573ffffffffffffffffffffffffffffffffffffffff167f085fc5bd8c9726f3672a4b4a74ed08fd4754e8b35192c8a5c405fd5e590300a9856040516105dd9190610c22565b60405180910390a4506105ee610639565b505050565b60026000540361062f576040517f3ee5aeb500000000000000000000000000000000000000000000000000000000815260040160405180910390fd5b6002600081905550565b6001600081905550565b600080fd5b600080fd5b600080fd5b600080fd5b600080fd5b60008083601f8401126106725761067161064d565b5b8235905067ffffffffffffffff81111561068f5761068e610652565b5b6020830191508360208202830111156106ab576106aa610657565b5b9250929050565b60008083601f8401126106c8576106c761064d565b5b8235905067ffffffffffffffff8111156106e5576106e4610652565b5b60208301915083602082028301111561070157610700610657565b5b9250929050565b6000806000806040858703121561072257610721610643565b5b600085013567ffffffffffffffff8111156107405761073f610648565b5b61074c8782880161065c565b9450945050602085013567ffffffffffffffff81111561076f5761076e610648565b5b61077b878288016106b2565b925092505092959194509250565b600073ffffffffffffffffffffffffffffffffffffffff82169050919050565b60006107b482610789565b9050919050565b6107c4816107a9565b81146107cf57600080fd5b50565b6000813590506107e1816107bb565b92915050565b6000602082840312156107fd576107fc610643565b5b600061080b848285016107d2565b91505092915050565b6000819050919050565b61082781610814565b811461083257600080fd5b50565b6000813590506108448161081e565b92915050565b60008060006060848603121561086357610862610643565b5b6000610871868287016107d2565b9350506020610882868287016107d2565b925050604061089386828701610835565b9150509250925092565b600082825260208201905092915050565b7f4c656e677468206d69736d617463680000000000000000000000000000000000600082015250565b60006108e4600f8361089d565b91506108ef826108ae565b602082019050919050565b60006020820190508181036000830152610913816108d7565b9050919050565b7f4e487b7100000000000000000000000000000000000000000000000000000000600052603260045260246000fd5b7f4e487b7100000000000000000000000000000000000000000000000000000000600052601160045260246000fd5b600061098382610814565b915061098e83610814565b92508282019050808211156109a6576109a5610949565b5b92915050565b60006109b782610814565b91507fffffffffffffffffffffffffffffffffffffffffffffffffffffffffffffffff82036109e9576109e8610949565b5b600182019050919050565b7f496e636f727265637420746f74616c206d73672e76616c756500000000000000600082015250565b6000610a2a60198361089d565b9150610a35826109f4565b602082019050919050565b60006020820190508181036000830152610a5981610a1d565b9050919050565b600081905092915050565b50565b6000610a7b600083610a60565b9150610a8682610a6b565b600082019050919050565b6000610a9c82610a6e565b9150819050919050565b7f5061796d656e74206661696c6564000000000000000000000000000000000000600082015250565b6000610adc600e8361089d565b9150610ae782610aa6565b602082019050919050565b60006020820190508181036000830152610b0b81610acf565b9050919050565b610b1b81610814565b82525050565b6000604082019050610b366000830185610b12565b610b436020830184610b12565b9392505050565b7f4e6f2076616c75652073656e7400000000000000000000000000000000000000600082015250565b6000610b80600d8361089d565b9150610b8b82610b4a565b602082019050919050565b60006020820190508181036000830152610baf81610b73565b9050919050565b7f4e6174697665207472616e73666572206661696c656400000000000000000000600082015250565b6000610bec60168361089d565b9150610bf782610bb6565b602082019050919050565b60006020820190508181036000830152610c1b81610bdf565b9050919050565b6000602082019050610c376000830184610b12565b92915050565b7f5a65726f20616d6f756e74000000000000000000000000000000000000000000600082015250565b6000610c73600b8361089d565b9150610c7e82610c3d565b602082019050919050565b60006020820190508181036000830152610ca281610c66565b9050919050565b610cb2816107a9565b82525050565b6000606082019050610ccd6000830186610ca9565b610cda6020830185610ca9565b610ce76040830184610b12565b949350505050565b60008115159050919050565b610d0481610cef565b8114610d0f57600080fd5b50565b600081519050610d2181610cfb565b92915050565b600060208284031215610d3d57610d3c610643565b5b6000610d4b84828501610d12565b91505092915050565b7f546f6b656e207472616e73666572206661696c65640000000000000000000000600082015250565b6000610d8a60158361089d565b9150610d9582610d54565b602082019050919050565b60006020820190508181036000830152610db981610d7d565b905091905056fea2646970667358221220dbd7b7b63e8146f422fc09bfacc19c5a4c2d74493f5f24ed3eecf6aa5f8e99d064736f6c63430008140033",
  "linkReferences": {},
  "deployedLinkReferences": {}
}