{
  "_format": "hh-sol-artifact-1",
  "contractName": "PaymentProcessorV2",
  "sourceName": "contracts/PaymentProcessorV2.sol",
  "abi": [
    {
      "inputs": [],
      "name": "ReentrancyGuardReentrantCall",
      "type": "error"
    },
    {
      "anonymous": false,
      "inputs": [
        {
          "indexed": true,
          "internalType": "address",
          "name": "payer",
          "type": "address"
        },
        {
          "indexed": false,
          "internalType": "uint256",
          "name": "total",
          "type": "uint256"
        },
        {
          "indexed": false,
          "internalType": "uint256",
          "name": "batchSize",
          "type": "uint256"
        }
      ],
      "name": "BatchNativePaid",
      "type": "event"
    },
    {
      "anonymous": false,
      "inputs": [
        {
          "indexed": true,
          "internalType": "address",
          "name": "from",
          "type": "address"
        },
        {
          "indexed": true,
          "internalType": "address",
          "name": "to",
          "type": "address"
        },
        {
          "indexed": false,
          "internalType": "uint256",
          "name": "amount",
          "type": "uint256"
        }
      ],
      "name": "NativePaid",
      "type": "event"
    },
    {
      "inputs": [
        {
          "internalType": "address[]",
          "name": "recipients",
          "type": "address[]"
        },
        {
          "internalType": "uint256[]",
          "name": "amounts",
          "type": "uint256[]"
        }
      ],
      "name": "batchPayNative",
      "outputs": [],
      "stateMutability": "payable",
      "type": "function"
    },
    {
      "inputs": [
        {
          "internalType": "address",
          "name": "to",
          "type": "address"
        }
      ],
      "name": "payNative",
      "outputs": [],
      "stateMutability": "payable",
      "type": "function"
    },
    {
      "stateMutability": "payable",
      "type": "receive"
    }
  ],
  "bytecode": "0x608060405234801561001057600080fd5b5060016000819055506109bb806100286000396000f3fe60806040526004361061002d5760003560e01c806308d69b8d1461003957806357ee62fc1461005557610034565b3661003457005b600080fd5b610053600480360381019061004e919061053b565b610071565b005b61006f600480360381019061006a919061061a565b6102be565b005b610079610426565b8181905084849050146100c1576040517f08c379a00000000000000000000000000000000000000000000000000000000081526004016100b8906106a4565b60405180910390fd5b6000805b8383905081101561010a578383828181106100e3576100e26106c4565b5b90506020020135826100f5919061072c565b9150808061010290610760565b9150506100c5565b5034811461014d576040517f08c379a0000000000000000000000000000000000000000000000000000000008152600401610144906107f4565b60405180910390fd5b60005b8585905081101561025b5760008686838181106101705761016f6106c4565b5b9050602002016020810190610185919061061a565b73ffffffffffffffffffffffffffffffffffffffff168585848181106101ae576101ad6106c4565b5b905060200201356040516101c190610845565b60006040518083038185875af1925050503d80600081146101fe576040519150601f19603f3d011682016040523d82523d6000602084013e610203565b606091505b5050905080610247576040517f08c379a000000000000000000000000000000000000000000000000000000000815260040161023e906108a6565b60405180910390fd5b50808061025390610760565b915050610150565b503373ffffffffffffffffffffffffffffffffffffffff167f2b20c2e0c4749695b34d571bb871ce4200b11aaa5091a503de95c795b72bdc9634878790506040516102a79291906108d5565b60405180910390a2506102b861046c565b50505050565b6102c6610426565b60003411610309576040517f08c379a00000000000000000000000000000000000000000000000000000000081526004016103009061094a565b60405180910390fd5b60008173ffffffffffffffffffffffffffffffffffffffff163460405161032f90610845565b60006040518083038185875af1925050503d806000811461036c576040519150601f19603f3d011682016040523d82523d6000602084013e610371565b606091505b50509050806103b5576040517f08c379a00000000000000000000000000000000000000000000000000000000081526004016103ac906108a6565b60405180910390fd5b8173ffffffffffffffffffffffffffffffffffffffff163373ffffffffffffffffffffffffffffffffffffffff167f6a13f84f6da02a30a03de118aa45b74e39b7e13fd70ff77d38ecdd6bf45c122f34604051610412919061096a565b60405180910390a35061042361046c565b50565b600260005403610462576040517f3ee5aeb500000000000000000000000000000000000000000000000000000000815260040160405180910390fd5b6002600081905550565b6001600081905550565b600080fd5b600080fd5b600080fd5b600080fd5b600080fd5b60008083601f8401126104a5576104a4610480565b5b8235905067ffffffffffffffff8111156104c2576104c1610485565b5b6020830191508360208202830111156104de576104dd61048a565b5b9250929050565b60008083601f8401126104fb576104fa610480565b5b8235905067ffffffffffffffff81111561051857610517610485565b5b6020830191508360208202830111156105345761053361048a565b5b9250929050565b6000806000806040858703121561055557610554610476565b5b600085013567ffffffffffffffff8111156105735761057261047b565b5b61057f8782880161048f565b9450945050602085013567ffffffffffffffff8111156105a2576105a161047b565b5b6105ae878288016104e5565b925092505092959194509250565b600073ffffffffffffffffffffffffffffffffffffffff82169050919050565b60006105e7826105bc565b9050919050565b6105f7816105dc565b811461060257600080fd5b50565b600081359050610614816105ee565b92915050565b6000602082840312156106305761062f610476565b5b600061063e84828501610605565b91505092915050565b600082825260208201905092915050565b7f4d69736d61746368656420617272617973000000000000000000000000000000600082015250565b600061068e601183610647565b915061069982610658565b602082019050919050565b600060208201905081810360008301526106bd81610681565b9050919050565b7f4e487b7100000000000000000000000000000000000000000000000000000000600052603260045260246000fd5b6000819050919050565b7f4e487b7100000000000000000000000000000000000000000000000000000000600052601160045260246000fd5b6000610737826106f3565b9150610742836106f3565b925082820190508082111561075a576107596106fd565b5b92915050565b600061076b826106f3565b91507fffffffffffffffffffffffffffffffffffffffffffffffffffffffffffffffff820361079d5761079c6106fd565b5b600182019050919050565b7f496e636f7272656374206d73672e76616c756500000000000000000000000000600082015250565b60006107de601383610647565b91506107e9826107a8565b602082019050919050565b6000602082019050818103600083015261080d816107d1565b9050919050565b600081905092915050565b50565b600061082f600083610814565b915061083a8261081f565b600082019050919050565b600061085082610822565b9150819050919050565b7f5472616e73666572206661696c65640000000000000000000000000000000000600082015250565b6000610890600f83610647565b915061089b8261085a565b602082019050919050565b600060208201905081810360008301526108bf81610883565b9050919050565b6108cf816106f3565b82525050565b60006040820190506108ea60008301856108c6565b6108f760208301846108c6565b9392505050565b7f4e6f2076616c75652073656e7400000000000000000000000000000000000000600082015250565b6000610934600d83610647565b915061093f826108fe565b602082019050919050565b6000602082019050818103600083015261096381610927565b9050919050565b600060208201905061097f60008301846108c6565b9291505056fea2646970667358221220497a7e6eee0a924cc012e1d4a8a15c95278c91f57dc83eebfb2a44802f6f8e2964736f6c63430008140033",
  "linkReferences": {},
  "deployedLinkReferences": {}
}